:0400000034EF01F0E8
:08000800046ED8CF05F0E0CF33
:1000100006F00001E9CF0CF0EACF07F0E1CF08F0DD
:10002000E2CF09F0D9CF0AF0DACF0BF0F3CF12F01C
:10003000F4CF13F0FACF14F000C00EF001C00FF0AF
:1000400002C010F003C011F0F2AA2AEF00F0F2B4DF
:100050004BEF00F00EC000F00FC001F010C002F036
:1000600011C003F00CC0E9FF07C0EAFF078E08C00B
:10007000E1FF09C0E2FF0AC0D9FF0BC0DAFF12C0DE
:10008000F3FF13C0F4FF14C0FAFF045006C0E0FFF2
:1000900005C0D8FF1000265208E1956A010E8C6E4B
:1000A000936A16C08AFF266E50D0262C08D0956A17
:1000B000020E8C6E936A17C08AFF266E46D02650B9
:1000C000020809E1956A040E8C6E936A18C08AFFD3
:1000D000030E266E3AD02650030809E1956A080EF1
:1000E0008C6E936A19C08AFF040E266E2ED026509D
:1000F000040809E1956A100E8C6E936A1AC08AFF93
:10010000050E266E22D02650050809E1956A200EBC
:100110008C6E936A1BC08AFF060E266E16D0265080
:10012000060809E1956A400E8C6E936A1CC08AFF2E
:10013000070E266E0AD02650070807E1956A800E42
:100140008C6E936A1DC08AFF266AF2942AEF00F033
:10015000EA6A280EE96EEF500DE0060E016E006AA5
:10016000002EFED7012EFBD77B0E006E002EFED791
:10017000EF2EF3D71200C30E166EBD0E176E7E0E55
:10018000186E196A1A6E1B6E1C6E1D6E040E276E99
:10019000FA0E286EDDDF272EFBD779EF01F0166A05
:1001A000EF0E176E186E196E1A6E1B6E1C6E1D6A9E
:1001B000040E276EFA0E286ECBDF272EFBD77AEFC0
:1001C00001F07F0E166E176E186E196E1A6E1B6E8A
:1001D0001C6E1D6A040E276EFA0E286EB9DF272EDC
:1001E000FBD77BEF01F0166AEF0E176E186E196ED3
:1001F0001A6E1B6E1C6E1D6E040E276EFA0E286E94
:10020000A7DF272EFBD77CEF01F0C30E166EBD0EC5
:10021000176E7E0E186E196E1A6E1B6EBD0E1C6E5A
:10022000C30E1D6E040E276EFA0E286E91DF272E68
:10023000FBD77DEF01F07E0E166E3E0E176E5E0E42
:10024000186E6E0E196E760E1A6E7A0E1B6E7C0E7E
:100250001C6E7E0E1D6E040E276EFA0E286E78DF61
:10026000272EFBD77EEF01F0F86AD09E078E266A14
:10027000C150C00B0F09C16E070EB46E1668176827
:10028000186819681A681B681C681D681E6A1F6A4E
:10029000206A216A226A236A246A256AC150C00B37
:1002A0000F09C16EC050C00BC06EC09EC280969830
:1002B000C69A949E93809392010EC66E000EC76EEE
:1002C000D190C60ED56ECD6A000ECA6E000ECB6EF2
:1002D000B16A070EB46E9250926E100E006E002E30
:1002E000FED70000B450A19CB56AF28AC00EF2128B
:1002F00042D755D766D777D788D79DD7F9D7030088
:020000040030CA
:0E0000003FC53E1E0007A1000FC00FE00F40DD
:00000001FF
;PIC18F4550
;CRC=FF08  CREATED="03-nov-17 02:20"
